:020000040800F2
:1000000000000120C5020008CB020008CF02000852
:1000100041030008450300088D03000800000000AC
:10002000000000000000000000000000D5030008F0
:10003000D903000800000000DD030008C506000821
:10004000F1030008F1030008F1030008F1030008C0
:10005000F1030008F1030008F1030008F1030008B0
:10006000F1030008F1030008F1030008F1030008A0
:10007000F1030008F1030008F1030008F103000890
:10008000F1030008F1030008F1030008000000007C
:10009000000000000000000000000000F103000864
:1000A000F1030008F1030008F1030008F103000860
:1000B000F1030008F1030008F1030008F103000850
:1000C000F1030008F1030008F1030008F103000840
:1000D000F1030008F1030008F1030008000000002C
:1000E000F1030008F1030008F1030008000000001C
:1000F000000000000000000000000000F103000804
:1001000000000000F1030008F1030008F1030008FB
:1001100000000000000000000000000000000000DF
:10012000F1030008F1030008F1030008F1030008DF
:10013000F1030008000000000000000000000000C3
:10014000000000000000000000000000F1030008B3
:10015000F1030008F1030008F1030008F1030008AF
:10016000F1030008F1030008000000000000000097
:10017000000000000000000000000000000000007F
:1001800000000000F1030008000000000000000073
:10019000F103000800B583B000F0BAF9384B394AD2
:1001A0001360394A1360394900E02146384B9942BF
:1001B0000BD20A684B6801F10C0488689842F4D9A4
:1001C0001168196004330432F8E72E4B1A68314B7A
:1001D0009A4200D0FEE72C4B1A682F4B9A42F9D175
:1001E000274B2E4A13602E4A13602E4B05E0002049
:1001F000106004329342FAD80B462B4A934204D241
:10020000194651F8082B5B68F4E7244B1B6813B9B7
:10021000234B1B6803B1FEE700F058FB694601A8B9
:1002200000F022F9214C224BE41AA4100025AC4224
:1002300014DC204C204BE41AA4100025AC4213DC43
:100240000099019800F060FB05461C4C1C4BE41A19
:10025000A410002C0EDC284600F0E2F8144B53F8F2
:10026000253098470135E2E7134B53F8253098477E
:100270000135E3E7013C124B53F824309847E8E797
:10028000BABADECA0000002070000020F4030008A3
:100290000C0400087856341232547698740000200A
:1002A0001C0100200C0400081C0400081C040008A9
:1002B0001C0400081C0400081C0400081C0400089E
:1002C0001C04000808B5FFF765FF00BEFEE71EF03E
:1002D000040F0CBFEFF30880EFF309807146414A29
:1002E00010472DE9F04182B004468846124B5E6B00
:1002F0009F6B9D6A1B6B13F0020F03D00E4BDB6AE2
:10030000002B0CDB0D4800F0B7F8CDF800803B4621
:1003100032462946204600F007F900BEFEE74BF6BC
:10032000AB6100F07BF90028ECD0034B4FF00042AA
:10033000DA6202B0BDE8F08100ED00E0641300086D
:1003400000BEFEE71EF0040F0CBFEFF30880EFF3D2
:1003500009807146244A10472DE9F04182B00446D5
:100360008846084B5E6B9F6B9D6A074800F084F8D7
:10037000CDF800803B4632462946204600F0D4F8AE
:1003800000BEFEE700ED00E0741300081EF0040F4D
:100390000CBFEFF30880EFF309807146134A104752
:1003A0002DE9F04182B004468846084B5E6B9F6B96
:1003B0009D6A074800F060F8CDF800803B46324661
:1003C0002946204600F0B0F800BEFEE700ED00E050
:1003D0008013000800BEFEE700BEFEE700BEFEE799
:1003E00070470000E302000859030008A103000859
:0403F00000BEFEE766
:1003F40004EE0108000000207400002004EE01084F
:1004040000000010000000107400002020010020F3
:080414000000001000000010C0
:10042000FEE7000008B503460C4A12685AB10B4AB1
:100430001068033323F003030344094A934206D8A8
:10044000064A136008BD054A06491160EFE700F04F
:1004500083FA0C2303604FF0FF30F3E778000020AD
:1004600000FC00202001002001230360014B0B60F1
:10047000704700BF040000200FB400B583B004AB88
:1004800053F8042B01938021064800F097FA0028C6
:1004900003DD0146034800F037F803B05DF804EBD4
:1004A00004B07047800000202DE9F04385B0044679
:1004B0000F4643560BB10E461EE004252846214642
:1004C000ABBE0446384605B0BDE8F08314F9011B05
:1004D00004AA1A4402F8101C0133AB42F6D304AA52
:1004E0001344002203F8102C4FF00408E94640465C
:1004F0004946ABBE8046761B002EE3D03546102E13
:1005000028BF10250023E8E708B5FFF7CDFF08BD99
:1005100008B500F093F8024A024B9A6008BD00BF8C
:100520000000000800ED00E0F8B504460D4617464F
:100530001E462748FFF7A0FF21682648FFF79CFFCB
:1005400061682548FFF798FFA1682448FFF794FFEA
:10055000E1682348FFF790FF21692248FFF78CFFED
:1005600061692148FFF788FFA1692048FFF784FFF0
:10057000E1691F48FFF780FF1E48FFF77DFF29460E
:100580001D48FFF779FF1D4CE16A1D48FFF774FF16
:10059000216B1C48FFF770FFE16B1B48FFF76CFFF6
:1005A00015F0800F0AD115F4004F0CD11748FFF752
:1005B00063FF06991648FFF75FFFF8BD39461548F7
:1005C000FFF75AFFEFE731461348FFF755FFEDE716
:1005D0004812000858120008681200087812000833
:1005E0008812000898120008A8120008B812000823
:1005F000C8120008D8120008E412000800ED00E05C
:10060000F41200080413000814130008441300082F
:100610004C130008241300083413000883691A8857
:100620008A4201D0002070470268033A012A03D8A9
:100630000233836101207047002070470C4B1A6819
:1006400042F001021A60002199601A6822F0847257
:1006500022F480321A60074A5A601A6822F4802213
:100660001A60D960044B4FF000629A60704700BF77
:10067000003802401030002400ED00E0044B1A68FE
:1006800042F002021A601A6822F004021A607047EF
:1006900010E000E0084B19600021084B1970084B6E
:1006A0001A6842F002021A60996058601A6842F0B3
:1006B00001021A60704700BF000100200401002001
:1006C00010E000E008B5084B1B6803B19847074BE2
:1006D0001B783BB1054B00221A70054A136823F0C2
:1006E0000103136008BD00BF0001002004010020C9
:1006F00010E000E00E4B1A6842F400221A601A68FB
:1007000022F480221A601A6842F001021A601A6804
:1007100042F480321A609A6842F080029A609A68C5
:1007200022F001029A609A6822F002029A607047F1
:1007300000380240032823D81F2923D802280FD0CD
:10074000032815D0012801D00020704710B40E4CAA
:10075000236B012202FA01F11943216310BC704797
:10076000094A136C012000FA01F119431164704722
:10077000054A536C012000FA01F119435164704796
:10078000002070470020704700380240022833D80C
:100790000F2931D810B4012812D018B102281DD069
:1007A00010BC7047154B1868490003248C4020EAA0
:1007B00004001860186802FA01F101431960EFE7BC
:1007C0000F4B1868490003248C4020EA040018608D
:1007D000186802FA01F101431960E1E7094B186852
:1007E000490003248C4020EA04001860186802FACB
:1007F00001F101431960D3E7704700BF00000240D8
:10080000000402400008024002283FD80F293DD8CA
:10081000012816D010B1022826D0704742B1012A13
:1008200034D11B48436902FA01F119434161704711
:1008300017484369012202FA01F123EA01014161EB
:10084000704742B1012A21D11248436902FA01F1ED
:100850001943416170470F484369012202FA01F1CF
:1008600023EA01014161704742B1012A0ED10A48D1
:10087000436902FA01F1194341617047064843692F
:10088000012202FA01F123EA01014161704700BF30
:1008900000000240000402400008024002280DD877
:1008A000012806D010B1022806D07047044B5961C8
:1008B0007047044B59617047034B5961704700BF43
:1008C000000002400004024000080240704700009F
:1008D00038B50A4D2B7883F001032B70084C236840
:1008E000084AD15C0020FFF7D9FF2A7800210120B7
:1008F000FFF78AFF23680133236038BD0C01002015
:10090000080100209013000810B5FFF7F3FEFFF771
:10091000B5FE00210120FFF70DFF01210846FFF77A
:1009200009FF002406E0012221460020FFF72EFFE8
:100930000134E4B2072CF6D9012200211046FFF75A
:1009400025FF03490348FFF7A5FE002010BD00BFA7
:10095000D108000840420F00014B1868704700BFE3
:100960000C00002030B5141E05469BB0184605DA71
:100970008B232B604FF0FF301BB030BD4FF4027360
:10098000ADF80C3014BF04F1FF33234602930593F6
:100990004FF6FF7300910491ADF80E3002461E9B96
:1009A0006946284600F072F8431CBCBF8B232B60BD
:1009B000002CE1D0009B00221A70DDE707B5009300
:1009C00013460A46014603480068FFF7CBFF03B011
:1009D0005DF804FB0C0000202DE9F0478E689E4274
:1009E00082460C469046994637D88A8912F4906F11
:1009F00031D0256809696F1A6569022305EB450541
:100A000095FBF3F509F101033B449D4238BF1D46B8
:100A1000530530D5294600F07DFB064650B90C231E
:100A2000CAF80030A38943F04003A3814FF0FF30A0
:100A3000BDE8F0873A46216900F0FAFAA38923F469
:100A4000906343F08003A381266165613E44ED1B02
:100A50002660A5604E464E4500D94E463246414678
:100A6000206800F0F0FAA3689B1BA36023681E4473
:100A700026600020DCE72A4600F0A6FB0646002898
:100A8000E2D12169504600F0F7FAC8E72DE9F04FAE
:100A90009DB0804603938B891D060C4616460FD5E4
:100AA0000B696BB9402100F035FB2060206128B94B
:100AB0000C23C8F800304FF0FF30C7E040236361DB
:100AC0000023099320238DF8293030238DF82A3014
:100AD0004FF0010B37463D4615F8013B0BB1252B76
:100AE0003ED1B7EB060A0BD053463246214640466C
:100AF000FFF772FF013000F0A480099B5344099373
:100B00003B78002B00F09D8000234FF0FF32CDE9B1
:100B10000523049307938DF853301A932F4605222B
:100B200017F8011B4F4800F033FA049BD0B9D906DF
:100B300044BF20228DF853201A0744BF2B228DF882
:100B400053202A782A2A15D0079A2F4600200A25F2
:100B5000394611F8013B303B092B4DD9B8B10FE0B4
:100B60002F46B8E73F4A801A0BFA00F0184304906A
:100B70003D46D3E7039A111D12680391002A01DB59
:100B8000079204E0524243F00203079204933B7839
:100B90002E2B0CD17B782A2B33D1039B1A1D1B687B
:100BA0000392002BB8BF4FF0FF33023705932E4D51
:100BB00039780322284600F0EBF938B14023401B76
:100BC00003FA00F0049B0343013704933978274864
:100BD0008DF8281006227E1C00F0DAF9002838D0A3
:100BE000234B13BB039B073323F007030833039303
:100BF000099B4B4409936DE705FB023201200F4628
:100C0000A6E700230137059319460A25384610F850
:100C1000012B303A092A03D9002BC8D00591C6E729
:100C200005FB012101230746F0E703AB00932246B1
:100C3000104B04A94046AFF30080B0F1FF3F81465E
:100C4000D6D1A3895B063FF536AF09981DB0BDE844
:100C5000F08F03AB00932246064B04A9404600F0F8
:100C600081F8EAE7D1ED0108D7ED0108DBED0108D5
:100C700000000000D90900082DE9F04791461F4601
:100C80008A680B69DDF820809342B8BF1346C9F823
:100C9000003091F8432006460C4612B10133C9F8E2
:100CA00000302368990642BFD9F800300233C9F8F2
:100CB0000030256815F0060507D104F1190AE3682C
:100CC000D9F800209B1AAB4228DC94F84330226804
:100CD000003318BF012392062DD404F14302394694
:100CE0003046C047013020D02368E568D9F800209D
:100CF00003F00603042B08BFAD1AA36822690CBFDA
:100D000025EAE57500259342C4BF9B1AED184FF004
:100D100000091A344D451AD1002008E0012352463B
:100D200039463046C047013003D14FF0FF30BDE8AF
:100D3000F0870135C3E7E1185A1C302081F84300E1
:100D4000224494F8451082F843100233C5E701238A
:100D5000224639463046C0470130E6D009F1010944
:100D6000D8E700002DE9F04301F1430C0C46097E61
:100D700085B06E291746064698460C9A00F0B38057
:100D800022D8632936D00AD8002900F0B980582922
:100D900000F0838004F1420584F8421032E06429B7
:100DA00001D06929F6D120681368050603F1040112
:100DB0002AD51B681160002B03DA2D225B4284F8D0
:100DC00043206F480A2239E0732900F09D8008D83B
:100DD0006F2920D07029DDD1236843F020032360E0
:100DE00003E0752917D07829D4D1782384F84530C9
:100DF000644855E01368191D1B68116004F1420531
:100E000084F8423001238CE01B68116010F0400F21
:100E100018BF1BB2CFE713682568181D106028069D
:100E200001D51B6802E06806FBD51B8854486F2972
:100E300014BF0A220822002184F843106568A560C7
:100E4000002DC0F29580216821F004012160002B63
:100E50003DD1002D40F08E806546082A0BD12368D5
:100E6000DB0708D5236962689A42DEBF302305F8A4
:100E7000013C05F1FF35ACEB05032361CDF80080A3
:100E80003B4603AA21463046FFF7F6FE01304DD11E
:100E90004FF0FF3005B0BDE8F083394884F84510C5
:100EA000136821681D1D1B6815600A060BD5CA074B
:100EB00044BF41F0200121601BB9226822F02002CA
:100EC00022601022B7E74D0648BF9BB2EFE76546A8
:100ED000B3FBF2F102FB1133C35C05F8013D0B4695
:100EE0000029F5D1B9E7136825686169181D1060FC
:100EF00028061B6801D5196002E06A06FBD5198037
:100F0000002323616546B9E71368191D11601D6848
:100F100062680021284600F03BF808B1401B606081
:100F200063682361002384F84330A7E723692A46D6
:100F300039463046C0470130AAD023689B0713D4F6
:100F4000E068039B9842B8BF1846A3E701234A46CE
:100F500039463046C04701309AD00135E368039ADC
:100F60009B1AAB42F2DCEBE7002504F11909F5E727
:100F7000002BACD1037884F8423004F142056CE7D1
:100F8000E2ED0108F3ED01080000000000000000A0
:100F900001F0FF01102A2BDB10F0070F08D010F82A
:100FA000013B013A8B422DD010F0070F42B3F6D12E
:100FB000F0B441EA012141EA014122F007047FF047
:100FC00000070023F0E80256083C85EA010586EA9E
:100FD000010685FA47F5A3FA87F586FA47F6A5FADA
:100FE00087F68EB9EED1F0BC01F0FF0102F00702E6
:100FF00032B110F8013B013A83EA010313B1F8D191
:101000000020704701387047002D06BF3546033871
:10101000073815F0010F07D1013015F4807F02BFAA
:10102000013015F4C03F0130F0BC0138704700BFFB
:1010300010B5431E0A44914200D110BD11F8014B76
:1010400003F8014FF7E7884210B501EB020307D818
:10105000421E99420AD011F8014B02F8014FF8E7FD
:101060008342F5D98118D21AD34200D110BD13F8AA
:10107000014D01F8014DF7E738B50546002945D087
:1010800051F8043C0C1F002BB8BFE41800F0D2F854
:101090001F4A1368104633B9636014602846BDE8E0
:1010A000384000F0C8B8A3420CD9216862189342B6
:1010B00004BF1A685B68636004BF52182260046052
:1010C000ECE713465A680AB1A242FAD919685818CF
:1010D000A0420BD120680144581882421960DDD12A
:1010E000106852685A6001441960D7E702D90C238E
:1010F0002B60D3E7206821188A4204BF1168526828
:10110000626004BF091821605C60C7E738BD00BF9A
:101110001001002070B5CD1C25F0030508350C2DFD
:1011200038BF0C25002D064601DBA94203D90C234C
:101130003360002070BD00F07DF8214A146821461C
:1011400091B9204C23681BB9304600F063F8206049
:101150002946304600F05EF8431C24D10C2333604E
:10116000304600F068F8E4E70B685B1B18D40B2BE3
:101170000FD90B60CD50CC18304600F05CF804F16C
:101180000B00231D20F00700C31AD3D05A42E250AF
:10119000D0E78C424B6816BF636013600C46EBE7E8
:1011A0000C464968CCE7C41C24F00304A04205D0D7
:1011B000211A304600F02EF80130CFD02560DBE751
:1011C0001001002014010020F8B5074614460E4611
:1011D00021B91146BDE8F840FFF79CBF22B9FFF7DF
:1011E0004BFF25462846F8BD00F026F8A0420FD256
:1011F00021463846FFF78EFF05460028F2D03146DB
:101200002246FFF715FF31463846FFF735FFE9E77D
:101210003546E7E738B5064C002305460846236007
:10122000FFF700F9431C02D1236803B12B6038BDDE
:10123000180100207047704751F8043C181F002B1C
:10124000BCBF0B58C0187047537461636B20667243
:10125000616D653A0A000000205230203D202025B3
:101260003038580A00000000205231203D2020254F
:101270003038580A00000000205232203D2020253E
:101280003038580A00000000205233203D2020252D
:101290003038580A0000000020523132203D20250D
:1012A0003038580A00000000204C52203D202025F4
:1012B0003038580A00000000205043203D202025EF
:1012C0003038580A0000000020505352203D20259D
:1012D0003038580A000000004653522F4641523A17
:1012E0000A0000002043465352203D20202530387C
:1012F000580A00002048465352203D20202530380F
:10130000580A00002044465352203D202025303802
:10131000580A00002041465352203D2020253038F5
:10132000580A0000204D4D464152203D20253038BE
:10133000580A00002042464152203D2020253038E6
:10134000580A00004D6973630A000000204C522FB8
:101350004558435F52455455524E3D20253038582C
:101360000A0000005B486172644661756C745D0A36
:10137000000000005B4275734661756C745D0A0085
:101380005B55736167654661756C745D0A000000AA
:101390008080808080807F807F80807F807F808051
:1013A0008080807F807F80808080808080807F8040
:1013B0007F807F7F807F807F807F807F807F808035
:1013C0007F807F807F807F807F7F7F7F807F807F27
:1013D0007F7F7F7F7F7F7F7F7F7F7F7F7F7F7F7F1D
:1013E0007F7F7F7F7F7F7F7F7F7F7F7F7F7F7F7F0D
:1013F0007F7F7F7F7F7F7F7F7F7F7F7F7F7F7F7FFD
:101400007F7F7F7F7F7F7F7F7F7F7F7F7F7F7F7FEC
:101410007F7F7F7F7F7F7F7F7F7F7F7F7F7F7F7FDC
:101420007F7F7F7F7F7F7F7F7F7F7F7F7F7F7F7FCC
:101430007F7F7F7F807F7F807F807F8080808080B4
:10144000808080808080808080808080808080809C
:10145000808080808080808080808080808080808C
:10146000808080808080808080808080808080807C
:10147000808080808080808080808080808080806C
:10148000808080808080808080808080808080805C
:10149000808080808080808080808080808080804C
:1014A000808080808080808080808080808080803C
:1014B0008080808080808080808080808080807F2D
:1014C0007F7F7F7F7F7F7F7F7F7F7F7F7F7F7F7F2C
:1014D0007F7F7F7F7F7F7F7F7F7F7F7F7F7F7F7F1C
:1014E0007F7F7F7F7F7F7F7F7F7F7F7F7F7F7F7F0C
:1014F0007F7F7F7F7F7F7F7F7F7F7F7F7F7F7F7FFC
:101500007F7F7F7F7F7F7F7F7F7F7F7F7F7F7F7FEB
:101510007F7F7F7F7F7F7F7F7F7F7F7F7F7F7F7FDB
:101520007F7F7F7F7F7F7F7F7F7F7F7F7F7F7F7FCB
:101530007F7F7F7F7F7F7F7F7F7F7F7F7F7F7F7FBB
:101540007F7F7F7F7F7F7F7F7F7F7F7F7F807F80A9
:101550007F8080808080808080808080808080808C
:10156000808080808080808080808080808080807B
:10157000808080808080808080808080808080806B
:10158000808080808080808080808080808080805B
:10159000808080808080808080808080808080804B
:1015A000808080808080808080808080808080803B
:1015B000808080808080808080808080808080802B
:1015C00080808080807F7F7F7F7F7F7F7F7F7F7F26
:1015D0007F7F7F7F7F7F7F7F7F7F7F7F7F7F7F7F1B
:1015E0007F7F7F7F7F7F7F7F7F7F7F7F7F7F7F7F0B
:1015F0007F7F7F7F7F7F7F7F7F7F7F7F7F7F7F7FFB
:101600007F7F7F7F7F7F7F7F7F7F7F7F7F7F7F7FEA
:101610007F7F7F7F7F7F7F7F7F7F7F7F7F7F7F7FDA
:101620007F7F7F7F7F7F7F7F7F7F7F7F7F7F7F7FCA
:101630007F7F7F7F7F7F7F7F7F7F7F7F7F7F7F7FBA
:101640007F7F7F7F7F7F7F7F7F7F7F7F7F7F7F7FAA
:101650007F7F7F808080808080808080808080808D
:10166000808080808080808080808080808080807A
:10167000808080808080808080808080808080806A
:10168000808080808080808080808080808080805A
:10169000808080808080808080808080808080804A
:1016A000808080808080808080808080808080803A
:1016B000808080808080808080808080808080802A
:1016C000808080808080808080808080808080801A
:1016D00080808080808080808080808080807F7F0C
:1016E0007F7F7F7F7F7F7F7F7F7F7F7F7F7F7F7F0A
:1016F0007F7F7F7F7F7F7F7F7F7F7F7F7F7F7F7FFA
:101700007F7F7F7F7F7F7F7F7F7F7F7F7F7F7F7FE9
:101710007F7F7F7F7F7F7F7F7F7F7F7F7F7F7F7FD9
:101720007F7F7F7F7F7F7F7F7F7F7F7F7F7F7F7FC9
:101730007F7F7F7F7F7F7F7F7F7F7F7F7F7F7F7FB9
:101740007F7F7F7F7F7F7F807F807F8080808080A2
:101750008080808080808080808080808080808089
:101760008080808080808080808080808080808079
:101770008080808080808080808080808080808069
:101780008080808080808080808080808080808059
:101790008080808080808080808080808080808049
:1017A0008080808080808080808080808080808039
:1017B000808080808080808080808080807F7F7F2C
:1017C0007F7F7F7F7F7F7F7F7F7F7F7F7F7F7F7F29
:1017D0007F7F7F7F7F7F7F7F7F7F7F7F7F7F7F7F19
:1017E0007F7F7F7F7F7F7F7F7F7F7F7F7F7F7F7F09
:1017F0007F7F7F7F7F7F7F7F7F7F7F7F7F7F7F7FF9
:101800007F7F7F7F7F7F7F7F7F7F7F7F7F7F7F7FE8
:101810007F7F7F7F7F7F7F7F7F7F7F7F7F7F7F7FD8
:101820007F807F807F7F807F8080808080808080BD
:1018300080808080808080808080808080808080A8
:10184000808080807F7F7F7F7F7F7F7F7F80807FA2
:10185000807F807F7F807F7F80808080808080808D
:10186000807F808080808080808080808080808079
:101870008080808080808080808080808080808068
:1018800080808080807F8080808080808080808059
:101890008080808080808080808080808080808048
:1018A0008080808080808080808080808080808038
:1018B0008080808080808080808080808080808028
:1018C000808080808080808080808080807F807F1A
:1018D0007F7F7F7F7F7F7F7F7F7F7F7F7F7F7F7F18
:1018E0007F7F7F7F7F7F7F7F7F7F7F7F7F7F7F7F08
:1018F0007F7F7F7F7F7F7F7F7F7F7F7F7F7F7F7FF8
:101900007F7F7F7F7F7F7F7F7F7F7F7F7F7F7F7FE7
:101910007F7F7F7F7F7F7F7F7F7F7F7F7F7F7F7FD7
:101920007F7F7F7F7F7F7F7F7F7F7F7F7F7F7F7FC7
:101930007F7F7F80808080808080808080808080AA
:101940008080808080808080808080808080808097
:101950008080808080808080808080808080808087
:101960008080808080808080808080808080808077
:101970008080808080808080808080808080808067
:101980007F7F7F808080807F7F7F7F7F7F7F7F7F63
:101990007F7F7F7F7F7F7F7F7F7F7F7F7F7F7F7F57
:1019A0007F7F7F7F7F7F7F7F7F7F7F7F7F7F7F7F47
:1019B0007F7F7F7F7F7F7F7F7F7F7F7F7F7F7F7F37
:1019C0007F7F7F7F7F7F7F7F7F7F7F7F7F7F7F7F27
:1019D0007F7F7F7F7F7F7F7F7F7F80808080808011
:1019E00080808080808080808080808080808080F7
:1019F00080808080808080808080808080808080E7
:101A000080808080808080808080808080808080D6
:101A100080808080808080808080808080808080C6
:101A200080808080808080808080808080808080B6
:101A300080808080808080808080807F7F7F7F7FAB
:101A40007F7F7F7F7F7F7F7F7F7F7F7F7F7F7F7FA6
:101A50007F7F7F7F7F7F7F7F7F7F7F7F7F7F7F7F96
:101A60007F7F7F7F7F7F7F7F7F7F7F7F7F7F7F7F86
:101A70007F7F7F7F7F7F7F7F7F7F7F7F7F7F7F7F76
:101A80007F7F7F7F7F7F7F7F7F7F7F7F7F7F7F7F66
:101A90007F7F7F7F7F7F7F8080807F807F8080804F
:101AA0008080808080808080808080808080808036
:101AB0008080808080808080808080808080808026
:101AC0008080808080808080808080808080808016
:101AD0008080808080808080808080808080808006
:101AE00080808080808080808080808080808080F6
:101AF00080808080808080808080808080808080E6
:101B000080808080808080807F7F7F7F7F7F7F7FDD
:101B10007F7F7F7F7F7F7F7F7F7F7F7F7F7F7F7FD5
:101B20007F7F7F807F7F808080807F7F7F7F7F7FC0
:101B30007F7F7F7F7F8080808080808080808080AA
:101B400080807F80808080807F8080808080808097
:101B50007F7F80807F808080808080808080808088
:101B600080808080807F807F8080807F7F7F807F7B
:101B70008080808080808080808080808080808065
:101B800080808080807F7F7F7F7F7F7F7F7F7F7F60
:101B90007F7F7F7F7F7F7F7F7F7F7F7F7F7F7F7F55
:101BA0007F7F7F7F7F7F7F7F7F7F7F7F7F7F7F7F45
:101BB0007F7F7F7F7F7F7F7F7F7F7F7F7F7F7F7F35
:101BC0007F7F7F7F7F7F7F7F7F7F7F7F7F7F7F7F25
:101BD00080808080808080807F808080807F7F7F09
:101BE0007F7F7F7F7F7F7F7F8080808080808080FD
:101BF00080808080808080808080808080808080E5
:101C000080808080808080808080808080808080D4
:101C100080808080808080808080808080808080C4
:101C200080808080808080808080808080808080B4
:101C300080808080808080808080808080807F7FA6
:101C40007F7F7F7F7F7F7F7F7F7F7F7F7F7F7F7FA4
:101C50007F7F7F7F7F7F7F7F7F7F7F7F7F7F7F7F94
:101C60007F7F7F7F7F7F7F7F7F7F7F7F7F7F7F7F84
:101C70007F7F7F7F7F7F7F7F7F7F7F7F7F7F7F7F74
:101C80007F7F7F7F7F7F7F7F7F7F7F7F7F7F7F7F64
:101C90007F7F7F7F7F7F7F7F7F808080808080804D
:101CA0008080808080808080808080808080808034
:101CB0008080808080808080808080808080808024
:101CC0008080808080808080808080808080808014
:101CD0008080808080808080808080808080808004
:101CE0008080808080807F7F7F7F7F7F7F7F7F7FFE
:101CF0007F7F7F7F7F7F7F7F7F7F7F7F7F7F7F7FF4
:101D0000807F7F7F7F7F7F7F7F7F7F7F7F7F7F7FE2
:101D10007F7F7F7F7F7F7F7F7F7F7F7F7F7F7F7FD3
:101D20007F7F7F7F7F7F7F7F7F7F7F7F7F7F7F7FC3
:101D30007F7F7F7F7F7F7F7F7F7F7F7F7F7F7F7FB3
:101D40007F7F807F807F8080808080808080808097
:101D500080808080808080808080808080807F8084
:101D60008080808080808080808080808080808073
:101D70008080808080808080808080808080808063
:101D80007F7F7F7F7F7F7F7F7F7F7F7F7F7F7F7F63
:101D90007F7F7F7F7F7F7F7F7F7F7F7F7F7F7F7F53
:101DA0007F7F7F7F7F7F7F7F7F807F7F7F7F807F41
:101DB000807F7F7F7F7F807F80807F7F7F7F7F7F2F
:101DC0007F7F7F7F7F7F7F807F807F807F7F7F7F20
:101DD0007F7F7F7F7F7F7F8080808080808080800A
:101DE00080808080808080808080808080808080F3
:101DF00080808080808080808080808080808080E3
:101E000080808080808080808080808080808080D2
:101E100080808080808080808080808080808080C2
:101E200080808080808080808080808080808080B2
:101E30007F7F7F7F7F7F7F7F7F7F7F7F7F7F7F7FB2
:101E40007F7F7F7F7F7F7F7F7F7F7F7F7F7F7F7FA2
:101E50007F7F7F7F7F7F7F7F7F7F7F7F7F7F7F7F92
:101E60007F7F7F7F7F7F7F7F7F7F7F7F7F7F7F7F82
:101E70007F7F7F7F7F7F7F7F7F7F7F7F7F7F7F7F72
:101E80007F7F7F7F7F7F7F7F80808080808080805A
:101E90008080808080808080808080808080808042
:101EA0008080808080808080808080808080808032
:101EB0008080808080808080808080808080808022
:101EC0008080808080808080808080808080808012
:101ED0008080808080808080808080807F807F7F05
:101EE000807F7F7F7F7F7F7F7F7F7F7F7F7F7F7F01
:101EF0007F7F7F7F7F7F7F7F7F7F7F7F7F7F7F7FF2
:101F00007F7F7F7F7F7F7F7F7F7F7F7F7F7F7F7FE1
:101F10007F7F7F7F7F7F7F7F7F7F7F7F7F7F7F7FD1
:101F20007F7F7F7F7F7F7F7F7F7F7F7F7F7F7F7FC1
:101F30007F7F7F7F7F7F7F808080808080808080A8
:101F40008080808080808080808080808080808091
:101F50008080808080808080808080808080808081
:101F60008080808080808080808080808080808071
:101F70008080808080808080808080808080808061
:101F80008080808080808080808080808080808051
:101F9000807F7F7F7F7F7F7F7F7F7F7F7F7F7F7F50
:101FA0007F7F7F7F7F7F7F7F7F7F7F80808080803C
:101FB000807F807F7F7F7F7F7F7F7F7F7F7F7F7F2F
:101FC0007F7F7F7F7F7F7F7F7F7F7F7F7F7F7F7F21
:101FD0007F7F7F7F7F7F7F7F7F7F7F7F7F7F7F7F11
:101FE0007F7F7F7F7F7F807F8080808080808080F8
:101FF00080808080808080808080808080808080E1
:1020000080808080808080808080808080808080D0
:1020100080808080808080808080808080808080C0
:1020200080808080808080808080808080808080B0
:10203000808080808080808080807F807F7F7F7FA5
:102040007F7F7F7F7F7F7F7F7F7F7F7F7F7F7F7FA0
:102050007F7F7F7F7F7F7F7F7F7F7F7F7F7F7F7F90
:102060007F7F7F7F7F7F7F7F7F7F7F7F7F7F7F7F80
:102070007F7F7F7F7F7F7F7F7F7F7F7F7F7F7F7F70
:102080007F7F7F7F7F7F7F7F7F7F7F7F7F7F7F7F60
:102090007F7F807F7F807F80808080807F80808046
:1020A0008080808080808080808080808080808030
:1020B0008080808080808080808080808080808020
:1020C0008080808080808080808080808080808010
:1020D0008080808080808080808080808080808000
:1020E000808080808080808080807F807F7F7F7FF5
:1020F0007F7F7F7F7F7F7F7F7F7F807F807F7F7FEE
:102100007F7F7F7F7F7F7F7F7F7F7F7F7F7F7F7FDF
:102110007F7F7F7F7F7F7F7F7F7F7F7F7F7F7F7FCF
:102120007F7F7F7F7F7F7F7F7F7F7F7F7F7F7F7FBF
:102130007F7F7F7F7F7F7F7F7F7F7F7F7F7F7F7FAF
:102140007F7F7F7F7F7F7F7F807F7F7F7F7F80809C
:10215000808080808080808080808080808080807F
:10216000808080808080808080808080808080806F
:10217000808080808080808080808080808080805F
:1021800080808080807F7F807F807F7F7F7F807F57
:102190007F7F7F7F7F7F7F7F7F7F7F7F7F7F7F7F4F
:1021A0007F7F7F7F7F7F7F7F7F7F7F7F7F7F7F7F3F
:1021B0007F7F7F7F7F7F7F7F7F7F7F7F7F7F7F7F2F
:1021C0007F7F7F7F7F80807F808080808080808015
:1021D00080808080808080808080808080808080FF
:1021E00080808080808080808080808080808080EF
:1021F00080808080808080808080808080808080DF
:1022000080808080808080808080808080808080CE
:1022100080808080808080808080808080808080BE
:1022200080808080808080808080808080807F7FB0
:102230007F7F7F7F7F7F7F7F7F7F7F7F7F7F7F7FAE
:102240007F7F7F7F7F7F7F7F7F7F7F7F7F7F7F7F9E
:102250007F7F7F7F7F7F7F7F7F7F7F7F7F7F7F7F8E
:102260007F7F7F7F7F7F7F7F7F7F7F7F7F7F7F7F7E
:102270007F7F7F7F7F7F7F7F7F7F7F7F7F7F7F7F6E
:102280007F7F7F7F7F7F7F7F7F7F7F7F7F7F7F7F5E
:102290007F8080808080808080808080808080803F
:1022A000808080808080808080808080808080802E
:1022B000808080808080808080808080808080801E
:1022C000808080808080808080808080808080800E
:1022D00080808080808080808080808080808080FE
:1022E00080808080808080808080808080808080EE
:1022F0008080807F7F7F7F7F7F7F7F7F7F7F7F7FEB
:102300007F7F7F7F7F7F7F7F7F7F7F7F7F7F7F7FDD
:102310007F7F7F7F7F7F7F7F7F7F7F7F7F7F7F7FCD
:102320007F7F7F7F7F7F7F7F7F7F7F7F7F7F7F7FBD
:102330007F7F7F7F7F7F7F7F7F7F7F7F7F7F7F7FAD
:102340007F7F7F7F7F7F7F7F7F7F7F7F7F7F7F7F9D
:102350007F7F7F7F7F7F7F7F7F7F7F7F7F8080808A
:10236000808080808080808080808080808080806D
:10237000808080808080808080808080808080805D
:10238000807F7F7F7F7F7F7F7F7F7F7F7F7F7F7F5C
:102390007F7F7F7F7F7F7F7F7F7F7F7F7F7F7F7F4D
:1023A0007F7F7F7F7F7F7F7F807F7F808080808037
:1023B00080808080808080808080808080807F7F1F
:1023C0007F7F7F7F7F7F7F7F7F7F7F7F7F7F7F7F1D
:1023D0007F7F7F7F7F7F7F7F7F7F807F8080808008
:1023E00080808080808080808080808080808080ED
:1023F00080808080808080808080808080808080DD
:1024000080808080808080808080808080808080CC
:1024100080808080808080808080808080808080BC
:1024200080808080808080808080808080808080AC
:1024300080807F7F7F7F7F7F7F7F7F7F7F7F7F7FAA
:102440007F7F7F7F7F7F7F7F7F7F7F7F7F7F7F7F9C
:102450007F7F7F7F7F7F7F7F7F7F7F7F7F7F7F7F8C
:102460007F7F7F7F7F7F7F7F7F7F7F7F7F7F7F7F7C
:102470007F7F7F7F7F7F7F7F7F7F7F7F7F7F7F7F6C
:102480007F7F7F7F7F7F8080808080808080808052
:10249000808080808080808080808080808080803C
:1024A000808080808080808080808080808080802C
:1024B000808080808080808080808080808080801C
:1024C000808080808080808080808080808080800C
:1024D00080808080808080808080808080808080FC
:1024E0008080808080807F7F7F7F7F7F7F7F7F7FF6
:1024F0007F7F7F7F7F7F7F7F7F7F7F7F7F7F7F7FEC
:102500007F7F7F7F7F7F7F7F7F7F7F7F7F7F7F7FDB
:102510007F7F7F7F7F7F7F7F7F7F7F7F7F7F7F7FCB
:102520007F7F7F7F7F7F7F7F7F7F7F7F7F7F7F7FBB
:102530007F7F7F7F7F7F7F7F7F7F7F7F7F7F7F7FAB
:102540007F7F7F7F7F7F7F7F7F7F7F7F7F807F8099
:10255000808080808080808080808080808080807B
:1025600080808080808080808080808080807F806C
:10257000808080808080808080808080808080805B
:10258000808080808080808080808080808080804B
:10259000808080808080808080808080808080803B
:1025A000808080808080808080808080808080802B
:1025B000808080808080808080808080808080801B
:1025C000808080808080808080808080808080800B
:1025D00080808080808080808080808080808080FB
:1025E00080808080808080808080808080808080EB
:1025F000808080808080808080808080807F7F7FDE
:102600007F7F7F7F7F7F7F7F7F7F7F7F7F7F7F7FDA
:102610007F7F7F7F7F7F7F7F7F7F7F7F7F7F7F7FCA
:102620007F7F7F7F7F7F7F7F7F7F7F7F7F7F7F7FBA
:102630007F7F7F7F7F7F7F7F7F7F7F7F7F7F7F7FAA
:102640007F7F7F7F7F7F7F7F7F7F7F7F7F7F7F7F9A
:102650007F7F7F7F7F7F7F7F7F7F7F7F7F7F7F7F8A
:102660007F7F7F7F7F7F7F7F7F7F7F7F7F7F7F7F7A
:102670007F7F7F7F7F7F7F7F7F7F7F7F7F7F808068
:10268000808080808080808080808080808080804A
:10269000808080808080808080808080808080803A
:1026A000808080808080808080808080808080802A
:1026B000808080808080808080808080808080801A
:1026C000808080808080808080808080808080800A
:1026D00080808080808080808080808080807F7FFC
:1026E0007F7F7F7F7F7F7F7F7F7F7F7F7F7F7F7FFA
:1026F0007F7F7F7F7F7F7F7F7F7F7F7F7F7F7F7FEA
:102700007F7F7F7F7F7F7F7F7F7F7F7F7F7F7F7FD9
:102710007F7F7F7F7F7F7F7F7F7F7F7F7F7F7F7FC9
:102720007F7F7F7F7F7F7F7F7F7F7F7F7F7F7F7FB9
:102730007F7F7F7F7F7F7F7F7F7F7F7F7F7F7F7FA9
:102740007F7F7F7F7F7F7F7F7F7F7F7F7F7F7F7F99
:102750007F7F7F7F7F7F7F7F7F7F7F7F7F7F7F7F89
:102760007F7F7F7F7F80808080808080808080806E
:102770008080808080808080808080808080808059
:102780008080808080807F7F7F7F7F7F807F7F7F52
:102790007F7F7F7F7F7F808080808080808080803F
:1027A0008080808080808080808080808080808029
:1027B0008080808080808080808080808080808019
:1027C0008080808080808080808080808080808009
:1027D00080808080808080808080808080808080F9
:1027E00080808080808080808080808080808080E9
:1027F00080808080808080808080808080808080D9
:1028000080808080807F807F7F7F7F7F7F7F7F7FD2
:102810007F7F807F7F7F7F7F7F7F7F8080808080C2
:102820007F7F7F7F7F7F7F7F7F7F7F7F7F7F7F7FB8
:102830007F7F7F7F7F7F7F7F7F7F7F7F7F7F7F7FA8
:102840007F7F7F7F7F7F7F7F7F7F7F7F7F7F7F7F98
:102850007F7F7F7F7F7F7F7F7F7F7F7F7F7F7F7F88
:102860007F7F7F7F7F7F7F7F7F7F7F7F7F7F7F7F78
:102870007F7F7F7F7F7F7F7F7F7F7F7F7F7F7F7F68
:102880007F7F7F7F7F7F7F7F7F7F80808080808052
:102890008080808080808080808080808080808038
:1028A0008080808080808080808080808080808028
:1028B0008080808080808080808080808080808018
:1028C0008080808080808080808080808080808008
:1028D00080808080808080808080808080808080F8
:1028E000808080808080808080807F7F7F7F7F7FEE
:1028F0007F7F7F7F7F7F7F7F7F7F7F7F7F7F7F7FE8
:102900007F7F7F7F7F7F7F7F7F7F7F7F7F7F7F7FD7
:102910007F7F7F7F7F7F7F7F7F7F7F7F7F7F7F7FC7
:102920007F7F7F7F7F7F7F7F7F7F7F7F7F7F7F7FB7
:102930007F7F7F7F7F7F7F7F7F7F7F7F7F7F7F7FA7
:102940007F7F7F7F7F7F7F7F7F7F7F7F7F7F7F7F97
:102950007F7F7F7F7F7F7F7F7F7F7F7F7F7F7F7F87
:102960007F7F7F7F7F7F7F7F7F7F7F7F7F7F7F7F77
:102970007F7F7F7F7F7F7F7F7F7F7F7F7F7F7F7F67
:102980007F80808080808080808080808080808048
:102990008080808080808080808080808080808037
:1029A0008080808080808080808080808080808027
:1029B0008080808080808080808080808080808017
:1029C0008080808080808080808080808080808007
:1029D00080808080808080808080808080808080F7
:1029E00080808080808080808080808080808080E7
:1029F00080808080808080808080808080808080D7
:102A000080808080808080808080808080808080C6
:102A10008080808080808080808080807F7F7F7FBA
:102A20007F7F7F7F7F7F7F7F7F7F7F7F7F7F7F7FB6
:102A30007F7F7F7F7F7F7F7F7F7F7F7F7F7F7F7FA6
:102A40007F7F7F7F7F7F7F7F7F7F7F7F7F7F7F7F96
:102A50007F7F7F7F7F7F7F7F7F7F7F7F7F7F7F7F86
:102A60007F7F7F7F7F7F7F7F7F7F7F7F7F7F7F7F76
:102A70007F7F7F7F7F7F7F7F7F7F7F7F7F7F7F7F66
:102A80007F7F7F7F7F7F7F7F7F7F7F7F7F7F7F7F56
:102A90007F7F7F7F7F7F7F8080808080808080803D
:102AA0008080808080808080808080808080808026
:102AB0008080808080808080808080808080808016
:102AC0008080808080808080808080808080808006
:102AD00080808080808080808080808080808080F6
:102AE00080808080808080808080808080808080E6
:102AF000808080808080807F7F7F7F7F7F7F7F7FDF
:102B00007F7F7F7F7F7F7F7F7F7F7F7F7F7F7F7FD5
:102B10007F7F7F7F7F7F7F7F7F7F7F7F7F7F7F7FC5
:102B20007F7F7F7F7F7F7F7F7F7F7F7F7F7F7F7FB5
:102B30007F7F7F7F7F7F7F7F7F7F7F7F7F7F7F7FA5
:102B40007F7F7F7F7F7F7F7F7F7F7F7F7F7F7F7F95
:102B50007F7F7F7F7F7F7F7F7F7F7F7F7F7F7F7F85
:102B60007F7F7F7F7F7F8080807F7F7F7F7F808070
:102B7000808080808080808080807F7F7F7F7F7F5B
:102B80007F7F7F7F7F7F7F7F7F7F7F7F7F7F7F7F55
:102B90007F7F7F7F7F7F7F7F7F7F7F7F7F7F7F7F45
:102BA0007F7F7F7F7F7F7F7F7F7F7F7F7F7F7F7F35
:102BB0007F7F7F7F7F7F7F7F7F7F7F7F7F7F7F7F25
:102BC0007F7F7F7F7F7F7F7F7F7F7F7F8080808011
:102BD000807F8080808080808080808080808080F6
:102BE00080808080808080808080808080808080E5
:102BF00080808080808080808080808080808080D5
:102C000080808080808080808080808080808080C4
:102C100080808080808080808080808080808080B4
:102C20008080808080808080808080807F7F7F7FA8
:102C30007F7F7F7F7F7F7F7F7F7F7F7F7F7F7F7FA4
:102C40007F7F7F7F7F7F7F7F7F7F7F7F7F7F7F7F94
:102C50007F7F7F7F7F7F7F7F7F7F7F7F7F7F7F7F84
:102C60007F7F7F7F7F7F7F7F7F7F7F7F7F7F7F7F74
:102C70007F7F7F7F7F7F7F7F7F7F7F7F7F7F7F7F64
:102C80007F7F7F7F7F7F7F7F7F7F7F7F7F7F7F8053
:102C90008080808080808080808080808080808034
:102CA0008080808080808080808080808080808024
:102CB0008080808080808080808080808080808014
:102CC0008080808080808080808080808080808004
:102CD00080808080808080808080808080808080F4
:102CE00080808080808080808080808080808080E4
:102CF000807F807F8080807F7F7F7F7F7F7F7F80DE
:102D0000808080808080808080807F7F7F7F7F7FC9
:102D10007F7F7F7F7F7F7F7F7F7F7F7F7F7F7F7FC3
:102D20007F7F7F7F7F7F7F7F7F7F7F7F7F7F7F7FB3
:102D30007F7F7F7F7F7F7F7F7F7F7F7F7F7F7F7FA3
:102D40007F7F7F7F7F7F7F7F7F7F7F7F7F7F7F7F93
:102D50007F7F7F7F7F7F7F7F7F7F7F7F7F7F7F7F83
:102D60007F7F7F7F7F7F7F7F7F7F7F7F7F7F7F7F73
:102D70007F7F7F7F7F7F7F7F7F7F7F7F7F7F7F7F63
:102D80007F7F7F7F7F7F7F7F7F7F7F7F7F7F7F7F53
:102D90007F7F7F7F7F7F7F7F7F7F7F7F7F7F7F7F43
:102DA0007F7F7F7F807F7F807F80807F7F7F7F7F2F
:102DB0007F7F7F807F807F80808080808080808018
:102DC0008080808080808080808080808080808003
:102DD00080808080808080808080808080808080F3
:102DE00080808080808080808080808080808080E3
:102DF00080808080808080808080808080808080D3
:102E000080808080808080808080808080808080C2
:102E100080808080808080808080808080808080B2
:102E200080807F7F7F7F7F7F7F7F7F7F7F7F7F7FB0
:102E30007F7F7F7F7F7F7F7F7F7F7F7F7F7F7F7FA2
:102E40007F7F7F7F7F7F7F7F7F7F7F7F7F7F7F7F92
:102E50007F7F7F7F7F7F7F7F7F7F7F7F7F7F7F7F82
:102E60007F7F7F7F7F7F7F7F7F7F7F7F7F7F7F7F72
:102E70007F7F7F7F7F7F7F7F7F7F7F7F7F7F7F7F62
:102E80007F7F7F7F7F7F7F7F7F7F80808080807F4D
:102E90008080808080808080808080808080808032
:102EA0008080808080808080808080808080808022
:102EB0008080808080808080808080808080808012
:102EC0008080808080808080808080808080808002
:102ED00080808080808080808080808080808080F2
:102EE00080808080808080808080808080808080E2
:102EF0007F807F7F7F7F7F7F7F7F7F7F7F7F7F7FE1
:102F00007F7F7F7F7F7F7F7F7F7F7F7F7F7F7F7FD1
:102F10007F7F7F7F7F7F7F7F7F7F7F7F7F7F7F7FC1
:102F20007F7F7F7F7F7F7F7F7F7F7F7F7F7F7F7FB1
:102F30007F7F7F7F7F7F7F807F7F7F7F7F7F7F7FA0
:102F40007F7F7F7F7F7F7F7F7F7F7F7F7F807F808F
:102F5000807F808080808080808080808080808072
:102F60008080808080808080808080808080808061
:102F700080808080807F807F7F7F807F7F7F7F7F5A
:102F80007F7F7F7F807F80807F7F7F7F7F7F7F7F4E
:102F9000807F8080807F8080807F80808080808034
:102FA0008080808080808080808080808080808021
:102FB00080808080808080808080807F7F7F7F7F16
:102FC0007F7F7F7F7F7F7F7F7F7F7F7F7F8080800E
:102FD00080807F807F8080808080808080808080F3
:102FE00080808080808080808080808080808080E1
:102FF00080808080808080808080808080808080D1
:103000008080808080808080808080807F807F7FC3
:103010007F808080808080808080808080808080B1
:103020008080807F7F7F7F7F7F7F7F7F7F7F7F7FAD
:103030007F7F7F7F7F7F7F7F7F7F7F7F7F7F7F7FA0
:103040007F7F7F7F7F7F7F7F7F7F7F7F7F7F7F7F90
:103050007F7F7F7F7F7F7F7F7F7F7F7F7F7F7F7F80
:103060007F7F7F7F7F7F7F7F7F7F7F7F7F7F7F7F70
:103070007F7F7F7F7F808080808080808080808055
:103080008080808080808080808080808080808040
:103090008080808080808080808080808080808030
:1030A0008080808080808080808080808080808020
:1030B0008080808080808080808080808080808010
:1030C0008080808080808080808080808080808000
:1030D00080808080808080807F7F7F7F7F7F7F7FF8
:1030E0007F7F7F7F7F7F7F7F7F7F7F7F7F7F7F7FF0
:1030F0007F7F7F7F7F7F7F7F7F7F7F7F7F7F7F7FE0
:103100007F7F7F7F7F7F7F7F7F7F7F7F7F7F7F7FCF
:103110007F7F7F7F7F7F7F7F7F7F7F7F7F7F7F7FBF
:103120007F7F7F7F7F7F7F7F7F7F7F7F7F7F7F7FAF
:103130007F7F7F7F7F7F7F7F7F8080808080808098
:10314000808080808080808080808080808080807F
:10315000808080808080808080808080808080806F
:10316000808080808080808080808080808080805F
:10317000808080808080808080808080808080804F
:10318000808080808080808080808080808080803F
:10319000808080808080808080808080808080802F
:1031A0008080807F7F7F7F7F7F7F7F7F7F7F7F7F2C
:1031B0007F7F7F7F7F7F7F7F7F7F7F7F7F7F7F7F1F
:1031C0007F7F7F7F7F7F7F7F7F7F7F7F7F7F7F7F0F
:1031D0007F7F7F7F7F7F7F7F7F7F7F7F7F7F7F7FFF
:1031E0007F7F7F7F7F7F7F7F7F7F7F7F7F7F7F7FEF
:1031F0007F7F7F7F7F7F7F7F7F7F7F7F7F7F7F7FDF
:103200007F7F7F7F7F7F7F7F7F7F7F7F7F7F7F7FCE
:103210007F7F7F7F7F7F7F7F7F7F7F7F7F7F7F7FBE
:103220007F7F7F7F7F7F7F7F7F7F7F7F7F7F7F7FAE
:103230007F7F7F7F7F7F7F7F7F7F7F7F7F7F7F7F9E
:103240007F7F7F7F807F807F808080808080808084
:10325000808080808080808080808080808080806E
:10326000808080808080808080808080808080805E
:10327000808080808080808080808080808080804E
:10328000808080808080808080808080808080803E
:10329000808080808080808080808080808080802E
:1032A000808080808080808080808080808080801E
:1032B000808080808080808080808080808080800E
:1032C0007F807F7F7F7F7F7F7F7F7F7F7F7F7F7F0D
:1032D0007F7F7F7F7F7F7F7F7F7F7F7F7F7F7F7FFE
:1032E0007F7F7F7F7F7F7F7F7F7F7F7F7F7F7F7FEE
:1032F0007F7F7F7F7F7F7F7F7F7F7F7F7F7F7F7FDE
:103300007F7F7F7F7F7F7F7F7F7F7F7F7F7F7F7FCD
:103310007F7F7F7F7F7F7F7F7F7F7F7F7F7F7F7FBD
:103320007F7F7F7F7F7F7F7F7F7F7F7F7F7F7F80AC
:10333000808080808080808080808080808080808D
:10334000808080808080808080808080808080807D
:10335000808080808080808080808080808080806D
:10336000808080808080808080808080808080805D
:10337000808080808080808080808080808080804D
:10338000808080808080808080808080808080803D
:1033900080807F7F7F7F7F7F7F7F7F807F807F7F39
:1033A00080807F807F7F7F7F8080808080807F7F24
:1033B00080807F7F7F7F7F7F7F7F7F7F7F7F7F7F1B
:1033C0007F7F7F7F7F7F7F7F7F7F7F7F7F7F7F7F0D
:1033D0007F7F7F7F7F7F7F7F7F7F7F7F7F7F7F7FFD
:1033E0007F7F7F7F7F7F7F7F7F7F7F7F7F7F7F7FED
:1033F0007F7F7F7F7F7F7F7F7F7F7F7F7F7F7F7FDD
:103400007F7F7F7F7F7F7F7F7F7F7F7F7F7F7F7FCC
:103410007F7F7F7F7F7F7F7F7F7F7F7F7F7F7F7FBC
:103420007F7F7F7F7F7F7F7F7F7F7F7F7F7F7F7FAC
:103430007F7F7F7F7F7F7F7F7F7F7F7F7F7F7F7F9C
:103440007F7F7F80807F807F7F7F7F7F807F808086
:10345000808080808080808080808080808080806C
:103460008080808080808080808080808080807F5D
:10347000808080808080808080808080808080804C
:10348000808080808080808080808080808080803C
:10349000808080808080808080808080808080802C
:1034A000808080808080808080808080808080801C
:1034B000808080808080808080808080808080800C
:1034C00080808080808080808080808080808080FC
:1034D0008080808080808080807F7F7F7F7F7F7FF3
:1034E0007F7F7F7F7F7F7F7F7F7F7F7F7F7F7F7FEC
:1034F0007F7F7F7F7F7F7F7F7F7F7F7F7F7F7F7FDC
:103500007F7F7F7F7F7F7F7F7F7F7F7F7F7F7F7FCB
:103510007F7F7F7F7F7F7F7F7F7F7F7F7F7F7F7FBB
:103520007F7F7F7F7F7F7F7F7F7F7F7F7F7F7F7FAB
:103530007F7F7F7F7F7F7F7F7F7F7F7F7F7F7F809A
:10354000808080808080808080808080808080807B
:10355000808080808080808080808080808080806B
:10356000808080808080808080808080808080805B
:10357000808080808080808080808080808080804B
:10358000808080808080808080808080807F807F3D
:103590007F807F807F7F807F7F8080808080808031
:1035A000808080808080808080808080808080801B
:1035B0008080808080807F807F807F7F7F7F7F7F13
:1035C0007F7F7F7F7F7F7F807F80807F7F7F807F07
:1035D00080808080808080808080808080808080EB
:1035E00080808080808080808080808080808080DB
:1035F00080808080808080808080808080808080CB
:1036000080807F7F7F7F807F807F80807F7F7F7FC4
:103610007F7F7F7F7F7F7F7F7F7F7F7F7F7F7F7FBA
:103620007F7F7F7F7F7F7F7F7F7F7F7F7F7F7F7FAA
:103630007F7F7F7F7F7F7F7F7F7F7F7F7F7F7F7F9A
:103640007F7F7F7F7F7F7F7F7F7F7F7F7F7F7F7F8A
:103650007F7F7F7F7F7F7F7F7F7F7F7F7F7F7F7F7A
:103660007F7F7F7F7F7F7F7F7F7F7F7F7F7F7F7F6A
:103670007F7F7F7F7F7F7F7F7F7F7F808080808055
:10368000808080808080808080808080808080803A
:10369000808080808080808080808080808080802A
:1036A000808080808080808080808080808080801A
:1036B000808080808080808080808080808080800A
:1036C00080808080808080808080808080808080FA
:1036D00080808080808080808080808080808080EA
:1036E00080808080807F807F80807F807F7F7F7FE1
:1036F0007F7F7F7F7F7F7F7F7F7F7F7F7F7F7F7FDA
:103700007F7F7F807F7F807F7F7F7F7F7F7F7F7FC7
:103710007F7F7F7F7F7F7F7F7F7F7F7F7F7F7F7FB9
:103720007F7F7F7F7F7F7F7F7F7F7F7F7F7F7F7FA9
:103730007F7F7F807F7F807F7F7F7F7F807F808094
:103740007F7F80808080808080808080808080807B
:1037500080808080808080808080808080807F806A
:10376000808080808080808080808080807F80805A
:103770007F80807F807F7F807F7F7F807F7F7F7F54
:103780007F7F7F7F7F7F7F7F7F7F7F7F7F7F7F7F49
:103790007F7F7F7F807F7F7F7F7F7F807F80808034
:1037A0007F7F7F7F807F8080807F7F808080807F21
:1037B0007F7F8080807F8080807F7F807F7F7F8011
:1037C0007F7F7F807F7F7F7F807F80808080807F02
:1037D000807F807F80808080808080807F808080EC
:1037E00080808080808080808080807F8080807FDB
:1037F00080808080807F80807F807F8080807F80CD
:1038000080807F807F80807F807F808080808080BC
:10381000808080807F7F7F807F7F808080808080AD
:10382000807F8080807F80807F7F807F807F807F9F
:103830007F7F807F7F7F7F7F7F7F7F807F7F7F8095
:103840007F7F7F7F7F7F7F7F7F7F7F7F7F7F807F87
:103850007F7F7F7F807F7F7F7F7F8080807F7F7F74
:103860007F7F80807F80807F7F7F7F807F7F7F7F63
:103870007F807F7F7F7F807F807F80807F7F807F52
:103880007F808080807F8080808080808080807F3B
:1038900080807F80808080807F808080807F7F7F2D
:1038A0008080807F8080807F80807F80808080801B
:1038B0007F807F8080808080807F8080808080800B
:1038C0008080807F8080807F80808080807F7F80FC
:1038D0007F7F80807F7F7F7F7F807F7F7F7F7F7FF5
:1038E0007F80807F807F7F807F7F8080807F7F7FE1
:1038F000807F7F80807F7F7F7F807F7F80807F7FD2
:1039000080807F7F807F7F7F7F7F7F7F7F7F7F80C3
:103910007F807F7F7F7F8080807F7E7F8080807FB1
:103920007F807F7F7F80807F7F8080807F7F80809F
:1039300080807F808080808081807F7F8080807F8A
:103940007F80807F7F80807F7F807F807F80807F7F
:103950007F80807F807F8080808080807F80807F6C
:1039600080807F7F8080807F808080807F8080805B
:103970007F7F80807F807F807F7F7F807F7F807F51
:10398000807F807F807F807F807F7F8080807F803E
:103990007F807F7F7F807F7F807F7F7F7F80807F32
:1039A000807F807F7F807F7F807F7F7F7F80807F21
:1039B0007F807F7F7F7F7F80807F807F7F807F8011
:1039C0007F7F80807F7F7F7F7F80807F807F808000
:1039D000807F807F7F807F807F808080807F7F80EE
:1039E0008080807F807F7F808080807F7F808080DC
:1039F0007F807F7F807F80807F80807F807F7F80CF
:103A0000807F80807F7F80817F807F80807F807FBC
:103A10008080807F807F808080807F8080807F80AA
:103A200080807F807F80807F7F80807F807F807E9E
:103A30007F7F8081807F7F7F7F807F807F7F7F7F90
:103A40007F807F7F7F7F7F80807F80807F7F807F80
:103A5000807F7F807F80807F7F807F7F7F80807F6F
:103A60007F7F7F807F7F7F8080807F807F7F7F7F61
:103A70007F7F807F80807F7F807F80807F80807F4E
:103A80007F807F7F7F8080807F80808080807F803C
:103A9000807F807F807F807F80807F7F808080812B
:103AA0007F7F808080807F807F808080807F7F7F1D
:103AB0008080807F807F7F80807F7F7F7F8080800D
:103AC0007F8080807F80807F8080807F817E8080FB
:103AD0007F80807F7F807F7F80807F807F7F807FEF
:103AE00080807F7F7F7F7F7F7F807F807F7F807FE1
:103AF0008080807F7F80807F7F817E7F7F7F7F80CF
:103B00007F7F807F7F807F7F7F7F8181807F807EBE
:103B10007F807F807F7F7F7F7F807F7F807F7F80B0
:103B20007F8080807F80817F7F7F7F7F80807F7F9D
:103B30007F7F817F7F807F7F80807F807F7F7F7F8F
:103B4000807F7F808080807F7F7F7F7F7F81807F7D
:103B50007F7F7F8080807F7F80807F7E808080806D
:103B6000818080807F7F7F7F807F7F80807F80805B
:103B7000807F7F8080807F80807F8080807F7F804B
:103B800080807F807F7F7F7F7F7F7F7F7F807F7F41
:103B90007F7F807F807F7E7F7F8080807F7F807F30
:103BA000807F7F7F808080817F7E7E8081807F801C
:103BB00080808080808080807F7F807F8080828105
:103BC0007F7F7E7D7E81838180838281817F7F7FF5
:103BD000807F7F7E7F808181807F8081807F807FEA
:103BE0007F807F807F8080807E80818080808080D9
:103BF0007F7F807F7F80807F80807F7E7F80807FCF
:103C00007F7F8081807F7E8080807F808080807FBA
:103C100080807F7F7F7F807F7E80807F8080807FAD
:103C20007F7E7F7F7F7F7E7D7E7F7E7E7F7F8080A9
:103C30007F7E7F7F7F7F7E7E7F7F7F7F7F7F808095
:103C4000808080808181818282828282828282825F
:103C50008282828180807F7E7D7B7979787776759C
:103C6000737272706F6F707782898989898B8D8882
:103C7000827C7A7B7D7C7C80848B908F8D8E8C8AFD
:103C8000888481828384868687898A8A8985807CE4
:103C90007874716B69696A696A697A9097958E8898
:103CA000868A7E726A6B737D80838A9298958C80F7
:103CB0007B77756F6F737D858B8E9092918C8682EA
:103CC0007F8081828488898A898683817D78746FE8
:103CD0006B69696868666D829698928A838480753C
:103CE0006A686F7E898D8F90939188776C686B6F0F
:103CF000747B838E94958F8984807D7A7B80878B7B
:103D00008E8D8D8C8A85807C7A7878757271706FD3
:103D10006E6C6667758E9892898282827D70696EFC
:103D20007D8B928F8C8B8C857969646A747E838895
:103D30008D93928D837B787B7F83878B9091908A04
:103D400085817F7F7F7E7E7E7C78736F6D6A6763FF
:103D50006577949F958A817D7D796E676F80929952
:103D6000968D8A89837465616678858B8A8E928F39
:103D7000897D75737C83898B8E90918F87827E80FD
:103D80008182828181807E77726C6B696860657EDA
:103D9000969F92887C797D7A716A7483939A9488CD
:103DA0008385807669656B7B888B89878A88857D2A
:103DB00077757C85898B8B8B8B8B87827F7F8182CC
:103DC0008584858483807C77716D6761596E868E6A
:103DD0008F8A847E86847E747175818D8F8B8585B4
:103DE00088877F7670717880817E7D7F8184827EF6
:103DF0007A7C7F8282817F808485858482828486AA
:103E00008685848383848482807E7C7A7B7D7D7DAD
:103E10007D7D7E8081828283838587888786858574
:103E200085827F7A76737374716D6D6D6F7476773A
:103E30007A7C7F838687868888898A898886868532
:103E4000858482807E7D7D7D7C7C7B7C7F80818281
:103E500082838587888888898A8A8A8986848280FD
:103E60007C79746E6A676A6B6666686970767A7D5B
:103E70008186898D918F8F8F8E8F8E8A87858382A1
:103E8000807D7A7979797B7A7A7B7D80838384855A
:103E900086888A8B8B8B8B8C8C8B898683817F7BAE
:103EA00078746F6A66656A686668696E757B7E811C
:103EB000868A8D91908F8E8D8E8E8B88858382825F
:103EC0007F7B7A79797B7B7A7B7C7F82848586860F
:103ED000888B8C8C8C8B8C8B8A898683807E7A787D
:103EE000746F696460656A67686B6F767F838587C6
:103EF0008B9091908D8B898B8B8783818183837F3E
:103F00007B7A7A7B7C79787A7D818586868A8C8DAE
:103F10008D8A89898A888786868685817D78746F6F
:103F200068625A53566C747D8082898E9189857D32
:103F30007D81838182868A918F8882807F7D78745B
:103F400074777C7F80818487888B8B8B8B88858539
:103F50008586878A8B8E8E8B86807A76706A66617C
:103F6000625F5E5D788B8E8F83817C837C76777BCE
:103F7000889297908C898A8279716D767D82818210
:103F8000838587807B7A7D82868A8B8F908D8984DA
:103F90008384858687888989857F78746F6D676358
:103FA000605F626B868C8C88807E7A7E78797C8676
:103FB0008E94948A86837F797672757D84878685D0
:103FC00081817E7B7A7D80868B8E8F8E8B878583A9
:103FD000838486888B8B8A86807B76726E6B66671D
:103FE00064656572898E8E827B76797E7C7C808921
:103FF000909892867F7C7B7A77747981888A867F95
:104000007B7D7D7D7F7F83898D908D89868585856C
:104010008585878A8B8A88837D7A75736F6C6766DE
:10402000626465738E8E8C807E777A81797A7F89DF
:1040300090978E847F7D7E7A777479808788847F5D
:104040007D7D7E807E7F83888D8F8C88868585862A
:10405000858587898A8986817D7A7875706B6765A1
:1040600064646376898D8D857E767D7F7A7C7E82A1
:104070008D959189827F7D7D7B75767A818686821A
:104080007E7C7F82828281838A8E8E8A86848587E7
:1040900089888787888988847E787674736F696356
:1040A0006163687987878584827E817E797A7D8560
:1040B0008B908E898686837F7A7575797F828382DD
:1040C0007F80828383818082868A8C8B88858586A7
:1040D0008888878686878786817C787675736F69FE
:1040E00064616166757F828585858284837D7D7C40
:1040F0007F848A8C8A898886837E787575787C7FB0
:104100008080808386878785828385888988858467
:1041100085888A8B8986848483837F7A7673716F9E
:104120006B67625F63707D83868584838587848007
:104130007D7C7F858A8B8A88868483807C79787968
:104140007C7E7F808283858786868686878888872F
:10415000858586878888878684848383817F7B772B
:1041600074716E6C6966666B71767C7F8080838605
:10417000888A898785848585868583817F7F7F80FE
:1041800080807F7E7E7E7F8081818182838586881C
:1041900088878787878787878685858585848280C6
:1041A0007E7B797673706C6866686B6B6D7070720D
:1041B000787E82878B8B8B8C8E8E8F8E8B8885847E
:1041C000838382807D7B79797A7C7D7D7D7E80830F
:1041D0008587878788888A8B8C8B8989888787865B
:1041E00083807E7B7876736F6B6764676A69696CBE
:1041F0006D6E757D81868A8A8B8E919293928F8A5D
:1042000088878685837F7B7878797A7B7B7B7B7DCB
:10421000808386888787888A8C8D8D8B8A89898818
:10422000878582807D7A7875726D68636468696A53
:104230006C6C6D71787E85898A8B8C8F919394904C
:104240008D8987858483807C797877787A7B7B7B7E
:104250007D7F8286878888898A8B8C8D8C8B8988E4
:1042600087878684817E7B797774716C67636469E4
:104270006B6C6E6F6E72797F868B8C8C8C8E8F9050
:1042800092908D88858381807F7D7B787777787A1F
:104290007B7D7F8082848687898A8A8B8C8C8B8BBE
:1042A0008A8887868482807E7C797775716D68655F
:1042B000686B6C6D6F6F6E73797F868A8C8C8D8D59
:1042C0008E90908F8D8985827F7E7E7C7B797777BB
:1042D00077797B7E808183848586888A8B8B8C8BA3
:1042E0008A89898887868482807E7D7B7976726ED2
:1042F0006A67696D6D6F70706F73787D83888B8C62
:104300008C8D8D8E8F8E8D8986837F7E7D7B7B7A53
:1043100079777778797C7F818284858587898A8B94
:104320008C8B8A8988888787858381807E7C7B794E
:1043300076726E6B686A6F6F71727373757B80854E
:104340008A8C8C8C8B8B8B8B8C8A8784817D7C7CFC
:104350007C7C7C7B7A79797B7E818485858484856D
:1043600086898B8B8B898887878787868482807EE6
:104370007D7C7A76716D6967696F727576787B7B03
:104380007F84888A8A8A88858584848584837F7DE2
:104390007B797A7C7E7E7E7D7C7B7D808385878534
:1043A00083828284868A8B8A89878687898A88869F
:1043B000827E7B7A787774716D6A67686C768080AC
:1043C0008483828181858383817D7C7B7F848588D2
:1043D0008784827F807F7E7D7B7978787B7D8083F8
:1043E0008587878786848382838384868888898972
:1043F0008988878684827F7D7C7B7A797875726FE5
:104400006D6C717A797A7D7F82838A8984837D7CE1
:104410007B7E85858686827F7E7E8080807F7C7A9B
:104420007A7B7E818585858481807F808284868871
:1044300089888787858585848382817F7F7F7E7F4A
:104440007D7B7874706D6D717271737881858C90DD
:104450008A867F7A79787E8081838282838384834F
:104460007F7F7B7A7B7B7E7D7F818183848382815A
:1044700081808287888988868483838485858482F5
:10448000807F7E7E7F7E7C7974706C6C71757778AE
:104490007B82848A8E89857E7875767D8285898700
:1044A00084828082807F7F7C7B7B7C7E8082848212
:1044B00083828181808182848889898885838282C0
:1044C0008485858482807F7E7F807F7D77716C6923
:1044D0006D73797D7B7F82858B8B87817874727712
:1044E00081878C8C88847F7D7E7D7D7D7B7B7C7EBF
:1044F0008181848382817F7F7E7E8184888B8A878D
:104500008481818285878685817E7D7E8081817F91
:104510007B75706C6A6D72787B7C82858A8E8A85E9
:104520007B72707079848B908D88837D7D7C7B7BA2
:10453000797B7C7F8383848380807F7F808081827E
:1045400085888A89878482828486878684807E7D26
:104550007E8082817F7A736D69696C767C7E8083D0
:10456000898A8B897F766E6E747F8D94938C847C20
:1045700078797B7B7B7A7B7E848888847F7A797C60
:1045800080848686858485868685848383858888DD
:1045900086837E7C7B7E8182817D77706A67686E90
:1045A000777F828385898C88837A6F6D717E8A920A
:1045B000948B827D7A7B7B7B78757A81888D8A82E9
:1045C0007975787F858A88848383858786838081CF
:1045D00085898D8C87807B7B7C7E80807E7C7B78D0
:1045E000726B6461697B888E8D8A87818280787224
:1045F0006F737E8B97958D83797576797B79797DCD
:10460000838B8E8A817874777E878B8A8783838475
:10461000868783808184898C8A857E7C7C7D7F7E71
:104620007C7B797977716B63626C7C8E938D8982E8
:1046300080807E7B716F757D8B94938C827B7A7981
:104640007A7874757B838B8E8B827A7A7D8287866B
:1046500083818185878886828183878A8986817C18
:104660007C7E7F7F7C7A79777775716C67687180E3
:104670008C8E8D87818080807D7775787D868C8C0F
:1046800089827E7D7C7D7B79797B8085868784812C
:1046900080808385858482818384868685848485E1
:1046A00086868683807F7E7E7D7C7A787777767536
:1046B000736F6D6E76818687858483828586807C24
:1046C0007B7A7E8184838080808082817F7D7C7EF6
:1046D00080828381808082848585848181818283B8
:1046E0008383838385868686848281807F7E7D7CAA
:1046F0007A797979797775737173787C7D7D7D7D31
:104700007E82848382818081838483817F7E7F8196
:1047100081807E7D7E7F818281807F808283848391
:104720008282828383848483838485878887868446
:104730008382807F7D7B79777776767572717172EF
:1047400078808383818182838483807C7B7E818364
:1047500083828181828585817E7C7B7D7E7F7F7D5A
:104760007E80838687878584858585848281818410
:104770008788888787878583807C7A797878747240
:10478000717070706E6E737F8F968F8581807D7B68
:1047900078716F76818A8F8D89868382817A727132
:1047A00073797F83868585888A8A867F7C7A7D82F5
:1047B000838484878D8F8E8A83808080807D7B7CBC
:1047C0007E81817E7A7574736F6C66656E7A8F9A5E
:1047D00090878181817A756D6E7B87908F898886BD
:1047E000858177716F747F848585868887837F7CD8
:1047F0007D81828282838687878686888A8886836F
:10480000818181807E7E818383817B777574716CE9
:104810006A6767788994948A837F7E7B6F6D717CE9
:104820008B8E8D8B8787847C726E737C8386868665
:104830008889837B76777D83878484878786837F57
:1048400081868A8986858383827F7C7D808383813C
:104850007E7B7A77716E6C6A6A6A718697938583BC
:10486000817B7B726A727E8A8C8A8C8A8985797058
:1048700070767C808486878B89807A78797E828343
:1048800083878B8A868382848787858587878481CF
:104890007F7E80807F7F7E7D7A76716E6C696669AF
:1048A0007B918F87898A8680736B727A7F7F858FF1
:1048B000939189807B767571737C8387898B8B87D5
:1048C000827D7B7B7C7C7F85898A898A8A898784B3
:1048D00083848582818282817F7E7E7E7B777573F1
:1048E000716D6A676973868B81888E8E8377777521
:1048F0007877767E89908B878B887E797675787CC1
:104900007C80878B8785878481807F7E8184838577
:10491000898A8889898786848281807E7C7C7B796C
:1049200079787673706E6B676A7A84807E8B9287F3
:10493000817F7F7C787476818381868C8B8683816E
:104940007F7C77777C7E7D8187878789898786844E
:104950008282838283868887898A89878683807E0C
:104960007A777674737272716E6A6C747D7C7983F7
:104970008C88818387817A7A7B7C7C7C8187858324
:104980008788837F807E7B7B7C7D7F828485888A0D
:1049900088888986848483838384848688878787BC
:1049A00086837F7D7A75737270706F6C6A6F7674B0
:1049B000747D848381848986818182817C7A8082EE
:1049C0007E7E8385807F84827F80818180818282D8
:1049D0008484848585848586858586868687888780
:1049E000888886858482807D7B7976747372717005
:1049F000706D6C6D737C7876848A84838B8D8582F0
:104A000087837C7C7F7C797C807D7F8384838486A4
:104A1000868484848383838282848484858888884E
:104A2000898A898887878582807E7C797775747288
:104A3000706F6E6A696E7575717784827E848C8BF7
:104A400085868986817F81807C7B7D7E7E7D7E815F
:104A50008281818485848284868381838482818427
:104A60008585868788868686848281807D7D7C7B1D
:104A70007979797978777879787778797877787AB1
:104A80007A7A7C7E7F7F8182828383838282828125
:104A90008181818080808180808182828282838204
:104AA00082838282838383838383838383828281DD
:104AB000818181808080807F7F7F7F7E7E7E7E7D02
:104AC0007D7E7E7D7D7D7D7D7D7D7D7E7E7D7E7E10
:104AD0007E7E7E7E7F7E7F80807F808181808081E0
:104AE00081818081818181808181818081818181B9
:104AF0008180818181818080818180808080807FB0
:104B00007F7F7F7F7F7F7F7F7E7E7E7E7E7E7E7DBE
:104B10007E7E7E7E7E7E7E7F7F7F7F7F7F7F7F7FAC
:104B20007F7F7F7F7F7F808080808080808080808B
:104B30008080808080808080818080808080808074
:104B40008080808080808080808080807F7F7F7F69
:104B50007F7F7F7F7F7F7F7F7F808080808080805E
:104B60008080807F7F7F7F7F80808080808080804A
:104B70008080808080808080808080808080808035
:104B8000808080808080807F7F7F7F7F7F7F7F7F2E
:104B90007F7F7F7F7F7F7F7F7F7F7F7F7F7F7F7F25
:104BA0007F7F7F7F7F7F7F7F7F7F7F7F7F80808012
:104BB00080808080808080808080808080808080F5
:104BC000808080808080808080807F7F7F7F7F7FEB
:104BD0007F7F7F7F7F7F7F7F7F7F7F7F7F7F7F7FE5
:104BE0007F7F7F7F7F7F7F8080808080807F7F7FCF
:104BF00080808080808080808080808080808080B5
:104C000080808080808080808080808080808080A4
:104C100080807F7F7F7F7F7F7F7F7F7F7F7F7F7FA2
:104C20007F7F7F7F7F7F7F7F7F7F7F7F7F7F7F7F94
:104C30007F7F7F7F7F7F7F7F7F7F7F7F8080808080
:104C40008080808080808080808080808080808064
:104C500080808080808080807F7F7F7F7F7F7F7F5C
:104C60007F7F7F7F7F7F7F7E7F7F808181807F7F4F
:104C70007E7F7E7E7E7E7F80807F7F80818282803D
:104C80007D7C7B7C7E7F8183848482818080818126
:104C900081807F7E7E7E7F8080808080808081801A
:104CA000807F7F7F7F7F7F7F7F7F7F7F7F7F7F7F13
:104CB000807F7F7E7E7F8080807F7E7E7E7E7F7F06
:104CC000818281807E7D7D7E7F80818282828282E0
:104CD00081828181808080808080807F7F7F7F7FD4
:104CE0008080808080807F7F7E7F7E7E7E7E7F7FD3
:104CF0008080807F7F7E7E7E7E7F7F7F7F7F7E7EC7
:104D00007E7F7F808080807F7F7F7F7F7F7F807FAF
:104D1000808080808080807F7F8080808080808095
:104D200080807F8080808080808080807F7F7F8087
:104D300080808080807F807F7F7F7F7F7F7F7F7F7D
:104D40007F7F7F7F7F7F8080807F7F7F7F7F7F7F70
:104D50007F80808080808181818180807F7F7F8053
:104D60008181818181808080808080808080807F3F
:104D70007F7F7F7F7F7F7F7F7F7F7F7F7F7F7F7F43
:104D80007E7E7E7E7E7E7E7E7E7F7F808080808037
:104D90007F7F7F7F80808080808080818181818112
:104DA00081818282828282828282828282838281E5
:104DB000807E7C7B7C7C7B7A797573716F70727678
:104DC0007B80848688898888868482807E7D7C7BBF
:104DD0007B7B7C7D7F8183858686878686868686AB
:104DE0008584838383848585868584848383828286
:104DF000817F7E7C7A79797877757271707073773C
:104E00007B7F838485868787878684827F7C7A7A86
:104E100079797A7B7C7E808183848585858585858B
:104E20008585848483838384848585848483838245
:104E30008281807E7D7B7A797877767472706F70EC
:104E400072767A7E8184868787878686858382804C
:104E50007E7C7B7A797A7A7C7D7F8082838485856B
:104E600085868686868685858584848483838383F8
:104E70008383828281807F7E7D7C7B7A7977767462
:104E80007271707173777B7E818385868686878653
:104E900086858482807E7D7B7B7A7A7B7C7D7F8029
:104EA00081828384858686878888878786858484AF
:104EB000838383828282818180807F7E7D7C7C7AF5
:104EC000797877757371717274777A7D8082838453
:104ED000858686868685848381807E7D7C7B7A7AC2
:104EE0007B7C7D7F80818384848586878788888793
:104EF000878685848281818181818180807F7E7D9A
:104F00007D7C7B7B7A7877757372727274777A7D29
:104F100080828384858586858584848381807F7D66
:104F20007C7C7B7B7B7C7D7F808283848585868681
:104F30008787888888878584838281818181818130
:104F400080807F7E7D7D7C7C7B7A797876747373BC
:104F50007476787B7D80828384858585858584844D
:104F60008382807F7E7D7C7C7C7C7D7E7F80818255
:104F700083848485868687878786858584838281E6
:104F80008181808080807F7F7E7E7D7C7C7B7A7942
:104F90007877757473737477797C7E808283848468
:104FA00085858585848382807F7E7D7D7C7C7C7CFD
:104FB0007D7D7E7F818282838484858586868686C8
:104FC000858584838382828181808080807F7F7ECB
:104FD0007E7D7D7C7B7A7978767473737476797C48
:104FE0007E818284848585858585848382807F7E99
:104FF0007D7C7C7C7C7D7D7E7F80818182838484BE
:105000008585868686868686858585848383828255
:105010008181818180807F7F7E7D7C7B7A797775BD
:105020007372727275787B7E8183848586878686AB
:10503000858381807E7C7C7B7B7B7C7C7D7E7F808E
:10504000818282838383838382838484848585852C
:10505000858585858584848383828181807F7F7E29
:105060007D7D7C7B79777673706E6D6E72767B80DA
:105070008487898B8B8A8986837F7C79767575771F
:10508000797B7E808385868786868482807E7D7C10
:105090007D7E80828487888A8B8B8A8987858481BC
:1050A000807F7F7F80818180807E7D7B7977747136
:1050B0006D6A696B717880868B8D8D8D8B88847F0E
:1050C0007B7774737376797D8185898A89888481F9
:1050D0007D7C7B7A7A7A7C7E8286898D8E8D8B89A7
:1050E000878484838281818182838586868582808C
:1050F0007D7B7A777573706E6B6B6D727A82898D3A
:105100008E8C8986817E7B78757475777C818688A4
:1051100089898683817E7C7A7978797B7F83868989
:105120008B8B8A8887858482818182848587888821
:105130008684838281807E7D7B7977767473716FBC
:105140006D6D6F757D868B8E8D88837D7B7878788D
:1051500078797A7D8185898B8A85817B7877787A61
:105160007D7F81838587898A8A88858382818283FE
:1051700085868787868686848482817F7D7C7A7A0D
:1051800079787775736F6C6B6C737B858C8E8D887B
:10519000827D7A79787979787A7E83888B8C888316
:1051A0007D787676797C7F81828586888A898784F6
:1051B00081808082848788888786858584848382AD
:1051C000807E7D7C7C7B7B797775726E6B6B6E7677
:1051D0007F888E8E8B857F7C7A79787878797D83CD
:1051E000888B8C89837D7978787A7D7F80828486AC
:1051F0008889888683828182848687878788878654
:10520000868483828181807F7D7B797878777573CE
:105210006F6A696E77828B8F8D87817D7A7A7A79D2
:105220007877797D848B8D8B867E787677797D7F94
:105230008080818487898A8784807F80828687882E
:10524000868585858686848280807F7F7F7E7B7948
:1052500078787776736F6B696D7580898D8C8782AE
:105260007E7C7C7B797777797E858B8C8A857F7A4B
:1052700078797B7C7D7E8083878A8A888684828217
:1052800083838485868788888785838282828282D9
:105290007F7C7A7978797876736F6C6A6E7781889B
:1052A0008C8B87827F7E7C7B797776797F858A8CF1
:1052B0008A86807C79797A7B7D80838587898888D6
:1052C0008785838282838385868787868583828399
:1052D000838483817F7C7B7A79797875726F6C693E
:1052E0006B737D858B8D8984807E7B7978777679E9
:1052F0007F85898B8A86807C7A79797C7E8083869B
:10530000898988878584838383848585848484834D
:10531000838485858483817F7E7D7B7979797877A5
:10532000757069666B737E888D8C8783827F7D79CB
:105330007573747A82888B8987837F7E7D7C7B7B83
:105340007F82858889888685868583838382828417
:105350008483848586868583817F7F7F7E7D7C7C38
:105360007C7C7D7C77706B6D77818A8D89837F7D76
:105370007E7D7C79747376797B7B7C7C7A7C808380
:10538000828080807F8183858484868788878684E5
:10539000818082838484848383848482807F7F80ED
:1053A0008182817F7E7F818484827F7E7E7D7D7EFF
:1053B0007E7E7F7F7F7C7A78787777767676767751
:1053C0007778797A7F8484807B7C7E7F81838483F5
:1053D000848686848383838384848483838584838F
:1053E000838383828283828281828281818281819E
:1053F000818080807F7F7E7E7E7E7E7D7D7D7D7DC7
:105400007C7C7B7C7B7C7D7D7D7D7C7B7B7A7B7BE0
:105410007B7C7D7D7D7F8081818080808081838495
:105420008485858483838485838383848382828245
:10543000828383817F7F808080807F7F7F7F7E7D6E
:105440007E7E7F7F7E7C7B7C7E7F7E7D7C7E807E81
:105450007B7B7D7D7D7D7C7A7A7E807E7C7D7F7F7F
:105460007D7B7C7D7E8184827D7E81818082838242
:105470008385847F7F8283838585828081827E7F0E
:1054800081858483827E7E8082807E7E7F817F7E16
:105490007E808081818079797E807F7B7D7C7C802D
:1054A0007F7C797C807F817E7D7D7F817E7E7D7F1C
:1054B00082838381808081828283807F80828381D6
:1054C000807E808585817E80817F818281808283CC
:1054D000807D7B7A7E82848281807D7D7D7D7C7EE5
:1054E00082817E7E7E7D7C7E82817F7E8081807EC9
:1054F0007E7D7F807E7E80828080817F7F807F80B6
:105500008183817E7F7F7F7F7F8183828181807C99
:105510007C80807F81818080817E7C7E8080808095
:1055200081807E7E7E7C7D7E7F7E80827F7D7F808F
:105530007F7F807F7F81807E80807F7F7F7F7F7F76
:1055400081807F7F81807F8081807F81808080805B
:10555000807F808080807F80807F7F80807F808050
:105560007F7E7F807F7F81818080807E7D7F807D48
:105570007E80817F80827F7E7F7F7D7C7F81807F38
:1055800080817F7E807F7F7F80817F7F80807F7F23
:10559000808080808180807F7F81808080807F800C
:1055A00082817F7F80807F7F7F808080807F7E7F01
:1055B000807F7E7F807E7F807F7F807F7E7F8080F8
:1055C0007F7E7E81817F7F7F808080807F7E8081E3
:1055D0007F7F8181808182807F81817F7F81817EC9
:1055E0007F81807F7F8081807E7F817F7E80807FC2
:1055F0007F80807F7F7F817F7F817F7E80807E7FB5
:10560000817E7E80807E7E81817F7F808080817FA1
:105610007D80817F80808080818181818080818187
:105620007F80817F7F8080807F807F7F80807F7E82
:105630007E807F7E7E7F7F7E7F807F7E7F807F7E7D
:105640007F7F7F7F807F7E807F7E7F807E7E807F6A
:105650007E7F807F7E7F80807E7F81808080818052
:10566000808080807F7F7F7F7F7F7F7F7F80807F44
:105670007F81817F7F80807F80807F808080807F2E
:1056800080807F7F80807F7F7F7F7F7F7F7F7F7F26
:105690007F7F7F7F7F7F7F7F7F8080808080808013
:1056A00080808081808181808081808080808080F6
:1056B00080808080808080808080808080808080EA
:1056C0008080808080808080807F7F7F7F7F7F7FE1
:1056D0007F7E7E7E7E7E7E7E7F7E7F7F7F7F7F7FE2
:1056E0007F7F7F7F808080808080818181818181B8
:1056F00081818181818181818080808080808080A2
:105700007F7F7F7F7F7F7F7F7F7F7F7F7F7F7F7FA9
:105710007F7F7F7E7F7E7E7E7E7E7E7E7E7E7E7EA5
:105720007E7E7E7E7E7E7E7E7E7F7F7F808081818C
:10573000818182828282828282828282828281814D
:105740008181818181818181818181818181818149
:105750008080807F7F7F80807F7F7E7D7D7D7C7C61
:105760007B7A79797877777776767677797A7C7EAF
:1057700080828385868788898989888887868685C7
:1057800084838281808080808080807F7F8082840B
:1057900085858685858685848383817E7D7B7876F5
:1057A00073716F6E6F7070727375787B7D80838498
:1057B000868789898A8A88878685848382807F7E96
:1057C0007D7C7D7D7D7D7E7E7F80818283858586DB
:1057D0008687878888888787868584848381807F79
:1057E0007D7B79777572706F6E6E6E6F7173757782
:1057F0007B7E8183868788898A8A8A89888786844E
:105800008382807F7E7D7C7C7C7B7C7D7D7E7F80B7
:105810008283858586878889898A8A898988878617
:105820008483817F7D7B79777572706E6D6C6D700E
:1058300070717478797C8183848789898A8B8A885E
:105840008888868583817F7F7D7C7B7A7A7A7B7B63
:105850007B7C7E7F81828383858686878888898A10
:10586000898989888786858381807E7C7B79777426
:10587000726F6D6C6B6D7174767A7C7E80858787B4
:10588000888987868685838282828181807F7F7EE8
:105890007E7D7C7D7D7D7D7E7F7F7F808182838319
:1058A0008484848585858687888889898787868496
:1058B00083817F7E7D7D7C7B7B7C7C7B7A7B7C7A1D
:1058C000777373716E7173757A7E80828487878730
:1058D00085828281807F7E808181828181828280B7
:1058E0007F7D7E7E7E7E7D7F8081818183858688AF
:1058F00088898A89888785858482818180807F7F65
:105900007E7E7E7C7B7B7A7A78747372716E6F7424
:10591000787C7F818485878582818181807F7F817A
:1059200083838382838382807F7E7E7E7D7D7E8073
:105930008081828384858585868788888887878615
:1059400086848382828180807F7E7E7D7C7B7A7963
:10595000787877767373717174787B7D81838486B0
:10596000868584838281818181808080808080801F
:1059700080808080807F7F7F7F7F80818182828323
:105980008383828281818181818181818181808003
:105990007F7F7E7E7E7D7D7D7D7D7D7D7D7D7D7D30
:1059A0007E7E7F7F7F7F7F7F7F7F7F7F7E7E7E7E0D
:1059B0007E7F7F7F7F8080808181818181818181E5
:1059C0008181818181808080807F7F7F7F7F7F7FD9
:1059D0007F7F7F7F7F7F7F7F7F7F7F8080808080D2
:1059E00080808080808080808080808080808080B7
:1059F00080808080808080808080808080808080A7
:105A00008080808080808080808080808080808096
:105A10007F7F7F7F7F7F7F7F7F7F7F7F7F7F7F7F96
:105A20007F7F7F7F7F7F7F7F7F7F7F7F7F7F7F7F86
:105A30007F7F7F7F7F7F7F8080808080808080806D
:105A40008080808080808080808080808080808056
:105A500080808080807F7F7F7F7F7F7F7F7F7F7F51
:105A60007F7F7F7F7F7F7F7F7F7F7F7F7F7F7F7F46
:105A70007F7F7F7F7F7F7F7F80808080808080802E
:105A80008080808080808080808080808080808016
:105A90008080808080808080807F7F7F7F7F7F7F0D
:105AA0007F7F7F7F7F7F7F7F7F7F7F7F7F7F7F7F06
:105AB0007F7F7F7F7F7F7F7F7F7F7F7F7F7F7F80F5
:105AC00080808080808080808080808080808080D6
:105AD000808080808080808080807F7F7F7F7F7FCC
